:020000040800F2
:10000000000400200F020008C53F0008C73F000899
:10001000CB3F0008CF3F0008D33F0008000000009E
:10002000000000000000000000000000D73F0008B2
:10003000D93F000800000000DB3F0008DD3F00085A
:100040002F0200082F0200082F0200082F020008CC
:100050002F0200082F0200082F0200082F020008BC
:100060002F0200082F0200082F0200082F020008AC
:100070002F0200082F0200082F0200082F0200089C
:100080002F0200082F0200082F0200082F0200088C
:100090002F0200082F0200082F0200082F0200087C
:1000A0002F0200082F0200082F0200082F0200086C
:1000B000DF3F00082F0200082F0200082F0200086F
:1000C0002F0200082F0200082F0200082F0200084C
:1000D0002F0200082F0200082F0200082F0200083C
:1000E0002F0200082F0200082F0200082F0200082C
:1000F0002F0200082F0200082F0200082F0200081C
:100100002F0200082F0200082F0200082F0200080B
:100110002F0200082F0200082F0200082F020008FB
:100120002F0200082F0200082F0200082F020008EB
:1001300000F002F800F05AF80AA090E8000C82449F
:100140008344AAF10107DA4501D100F04FF8AFF27C
:10015000090EBAE80F0013F0010F18BFFB1A43F0A5
:1001600001031847D0420000F04200000A444FF05B
:10017000000C10F8013B13F0070408BF10F8014B06
:100180001D1108BF10F8015B641E05D010F8016B4B
:10019000641E01F8016BF9D113F0080F1EBF10F8AF
:1001A000014BAD1C0C1B09D16D1E58BF01F801CBD2
:1001B000FAD505E014F8016B01F8016B6D1EF9D555
:1001C0009142D6D37047000000230024002500266A
:1001D000103A28BF78C1FBD8520728BF30C148BFAA
:1001E0000B6070471FB51FBD10B510BD03F098FF21
:1001F0001146FFF7F7FF03F09BFE03F0B6FF03B4D1
:10020000FFF7F2FF03BC03F0BBFF000070470B4891
:1002100080470B4981F308880A480047FEE7FEE75C
:10022000FEE7FEE7FEE7FEE7FEE7FEE7FEE7FEE7A6
:1002300005480649044A064B704700000D020008B5
:1002400058130020310100085811002058130020D5
:10025000581100201CB50121102002F047F94FF47D
:10026000E050ADF8040001208DF8060048208DF81C
:10027000070001A9B34801F0A3FE0121202002F0EC
:1002800035F90420ADF8000001208DF80200482067
:100290008DF803006946AC4801F092FE1CBD10B514
:1002A000AA48007801287DD1A848407801280CD1BF
:1002B0000020A649487008460079401C087108468D
:1002C00000790A2801DB02200871A0488078012803
:1002D00003D09E48C0780128E5D19C4800790228C7
:1002E00018D19A4880789949C978401A974949792C
:1002F00008449649487108464079042802DB0120E9
:10030000487174E091484079002870DC03208F49DF
:1003100048716CE08D480079022868DD8B480079CF
:10032000C01E8B490870894880788849C978401A6E
:1003300088490968864A127831F8121008448549BC
:100340000968834A127821F8120082480068008800
:10035000B0F5AF7F04DB4FF4AF707E4909680880C9
:100360007C4800680088962803DC96207949096853
:100370000880784800684088B0F5AF7F04DB4FF410
:10038000AF707449096848807248006840889628B0
:1003900003DC96206F49096848806E4800688088B1
:1003A0008C2800E029E003DB8C206A4909688880FA
:1003B000684800688088002803DC002065490968D7
:1003C000888064480068C088B0F5FA7F04DB4FF489
:1003D000FA7060490968C8805E480068C088B0F556
:1003E000CD7F04DC4FF4CD705A490968C8800020E5
:1003F00056498870C87001F02FFD10BD70B50646D3
:100400000C46304601F076FE2040A0426AD044F609
:10041000206000F0B4F8304601F06CFE2040A042AD
:100420005ED0304601F066FE00EA0405B5F5406F87
:1004300006D0B5F5A05F17D0B5F5C05F24D11BE09D
:100440004FF48051304601F04CFE40B901203F4945
:100450004870002040490860012040490870002091
:100460003A498870C87010E001203849887000202F
:1004700048703A49087008E001203449C8700020EB
:1004800048703649087000E000BF00BF20E03348E4
:100490000078012816D130480068142812D30020B3
:1004A0002E49087029480078401C284908700846E1
:1004B0000078022803DB002008700120087100206A
:1004C00025490860FFF7EBFE2049087900F053FF4B
:1004D000304601F00FFE2040A042D8D1002070BD70
:1004E0000120FCE70120FAE710B50421164801F0CD
:1004F000F8FDD0B944F6206000F041F8042112481C
:1005000001F0EFFD50B911488079401C0F49887106
:1005100008468079032801DB0120887100BF04218F
:10052000094801F0DEFD0028F9D00848807901284B
:1005300007D14FF4E0510348FFF760FF08B9FFF718
:10054000AEFE10BD0010014000140140000000206C
:100550001D00002018000020E40100201C000020E5
:10056000174908601749096841F08071154A116000
:100570001549096841F00101134A1160704730B50F
:100580000246114843680E480068104DB0FBF5F074
:1005900000FB02F41919994205D900BF0A484068C6
:1005A0008842FBD309E000BF074840688842FBD877
:1005B00000BF054840688842FBD3012030BD0000E1
:1005C00024000020FCED00E0001000E040420F009D
:1005D00010B50446F748006820F02000F54908608F
:1005E0000846006840F0200008600846006820F0D7
:1005F000400008600846006840F0400008600120A4
:10060000FFF7BDFFEB48001F006820F08000E949BC
:10061000091F08600846006840F08000086001205B
:10062000FFF7ADFFE34808380068C0B2E149083978
:1006300008600846006840EA042008604FF44870EB
:10064000FFF79DFFDB48006820F08000D949086073
:100650000846006840F080000860081F006820F02D
:100660004000091F08600846006840F0400008602C
:100670000120FFF784FF10BD10B5CE481038006888
:1006800020F04050CB49103908600846006820F03F
:10069000404008600120FFF772FFC648006820F064
:1006A0002000C44908600846006840F02000086047
:1006B000081F006820F04000091F08600846006815
:1006C00040F0400008600120FFF759FF00BFB94823
:1006D000006820F08000B74908600846006840F0D4
:1006E000800008604FF4FA70FFF749FFB148001F1F
:1006F000006820F08000AF49091F086008460068C4
:1007000040F0800008604FF4FA70FFF738FFA94806
:100710000C38006800F40040A749088008460088AB
:100720000028D4D1A3481038006840F04050A149B7
:10073000103908600846006808600120FFF71FFFB5
:1007400010BD10B50446FFF797FF9A48006820F0E7
:100750002000984908600846006840F020000860C2
:100760000846006820F0400008600846006840F035
:10077000400008600120FFF702FF8E48001F00685C
:1007800020F080008B49091F08600846006840F08F
:10079000800008600120FFF7F2FE864808380068F4
:1007A000C0B28449083908600846006840EA04205D
:1007B00008604FF44870FFF7E2FE7E48006820F0C2
:1007C00080007C4908600846006840F080000860AE
:1007D000081F006820F04000091F086008460068F4
:1007E00040F0400008600120FFF7C9FE10BD10B5C1
:1007F0000446FFF741FF6F48001F006820F020000B
:100800006C49091F08600846006840F02000086035
:10081000081D006820F04000091D086008460068B7
:1008200040F0400008600120FFF7A9FE6148001F6A
:10083000006820F080005F49091F086008460068D2
:1008400040F0800008600120FFF799FE5948083801
:100850000068C0B25749083908600846006840EA95
:10086000042008604FF44870FFF789FE5148006883
:1008700020F080004F4908600846006840F0800082
:100880000860081F006820F04000091F0860084643
:10089000006840F0400008600120FFF770FE454806
:1008A00008380068C0B24349083908600846006843
:1008B000086010BD10B504462046FFF742FF10BD8A
:1008C00070B505460E460024681C032800DD082488
:1008D00015F0010F02D044F0800401E044F09004D0
:1008E000701E204484B22046FFF72BFF70BD10B568
:1008F00004462046FFF77BFF10BD70B505460E4647
:10090000144631462846FFF7DBFF2046FFF76FFF0E
:1009100070BD10B50446002028490880088009E011
:1009200026490988605CFFF762FF24480088401C64
:100930002249088021480088205C0028F0D110BDA1
:1009400070B505460E46144631462846FFF7B8FFF7
:100950002046FFF7DEFF70BD2DE9FE430446184830
:10096000844201D308251DE01648844201D307259F
:1009700018E01548844201D3062513E042F21070B6
:10098000844201D305250DE0B4F57A7F01D3042517
:1009900008E0642C01D3032504E00A2C01D30225CE
:1009A00000E001254FF000082E4628E00127B94657
:1009B00013E00000140C0140280000202A00002051
:1009C0008096980040420F00A086010007EB870048
:1009D000470009F101001FFA80F9B145F6DBB4FBCD
:1009E000F7F03030C2B24046411C1FFA81F80DF8D2
:1009F0000020B4FBF7F007FB1044701E86B2002EF7
:100A0000D4DC00200DF808006846FFF782FFBDE83F
:100A1000FE8370B505460E46144631462846FFF75C
:100A20004FFF2046FFF798FF70BD3EB504460D46C8
:100A30000020FE490860FE490860FE490860FE4942
:100A40000860FE490860FE48844203D30820FA4942
:100A500008602BE0FB48844203D30720F649086076
:100A600024E0F948844203D30620F34908601DE0DE
:100A700042F21070844203D30520EF49086015E06C
:100A8000B4F57A7F03D30420EB4908600EE0642CB0
:100A900003D30320E849086008E00A2C03D30220AE
:100AA000E549086002E00120E3490860E248006887
:100AB000DE49086030E00120E0490860DC49086058
:100AC0000BE0DE48006800EB80004000DB49086076
:100AD000D7480068401CD6490860D5480068D3490B
:100AE00009688842EDD3D5480068B4FBF0F0303097
:100AF000C1B2D04802680068401CCE4B18600DF8A7
:100B00000210CE480068B4FBF0F100FB1144C74866
:100B10000068401EC5490860C44800680028CAD162
:100B20000820C249086011E0C04909681DF80100A9
:100B3000302806DBBD4909681DF80100392800DCB2
:100B400008E0BA480068401EB8490860B748006825
:100B50000028E9D100BFB8480068401EB3490860CA
:100B60000020B349086012E0B04909681DF801107F
:100B7000AE480068401C0DF80010AD480068401CED
:100B8000AB490860A9480068401EA8490860A84809
:100B90000068A842E8D32E20A7490968491B0DF830
:100BA00001000021A4480068401C0DF800106846B0
:100BB000FFF7AFFE3EBD2DE9F04106460F46144655
:100BC0001D4639463046FFF77BFE29462046FFF793
:100BD0002CFFBDE8F0812DE9F04781460C46154613
:100BE0001F46DDE9088600210120FFF769FE97A076
:100BF000FFF78FFE4846FFF7AFFE2D20FFF777FE89
:100C00002046FFF7A9FE2D20FFF771FE2846FFF7CB
:100C1000A3FE0A2C08DA0A2D06DA2020FFF767FE69
:100C20002020FFF764FE0AE00A2C01DA092D03DC1C
:100C3000092C04DD0A2D02DA2020FFF758FE0F21CF
:100C40000120FFF73DFE2A20FFF751FE0021022080
:100C5000FFF736FE7FA0FFF75CFE3846FFF77CFE0D
:100C60003A20FFF744FE4046FFF776FE3A20FFF7B2
:100C70003EFE3046FFF770FE16B93020FFF737FE14
:100C80002020FFF734FE2020FFF731FE0A2F09DA7B
:100C9000B8F10A0F06DA002E04DD0A2E02DA20204F
:100CA000FFF725FE0F210220FFF70AFE2A20FFF79B
:100CB0001EFEBDE8F08710B504463420FFF741FD65
:100CC00044F62060FFF75BFC0020644908802BE0BD
:100CD00062490988803188B2FFF733FD6048FFF729
:100CE0004EFC8020FFF72DFD5D48FFF748FC0020FB
:100CF0005C4908800CE05B490988605CFFF777FD80
:100D00005748FFF73CFC57480088401C554908806D
:100D1000544800881028EEDB5148FFF730FC4F485C
:100D20000088401C4D4908804C4800882028CFDBB3
:100D30003620FFF706FD4CF25030FFF720FC10BDC7
:100D400010B51820FFF7FDFC10BD10B51C20FFF7F3
:100D5000F8FC10BD10B50120FFF7F3FC10BD10B575
:100D60000220FFF7EEFC10BD10B50820FFF7E9FCEC
:100D700010BD10B50C20FFF7E4FC10BD70B50446A3
:100D80000D460D20FFF7DDFC29462046FFF798FDB4
:100D900070BD10B50C20FFF7D4FC10BD10B50820B5
:100DA000FFF7CFFC3048FFF7EAFB0C20FFF7C9FC48
:100DB0002D48FFF7E4FB10BD08B50121082001F024
:100DC00095FB0121082001F091FB4FF47F40ADF825
:100DD000000003208DF8020010208DF80300694602
:100DE000224801F0EDF8BDF8000040F0E100ADF858
:100DF000000003208DF8020010208DF803006946E2
:100E00001A4801F0DDF808BD10B50120174914316A
:100E100008601748FFF7B3FB012014491031086040
:100E20001348FFF7ACFB302024E000002C0000202A
:100E30003000002034000020380000203C0000205A
:100E40008096980040420F00A086010044617465BE
:100E50003A00000054696D653A000000400000202F
:100E6000F04902004200002020A10700000C0140D0
:100E7000E0930400FFF7ACFB0C20FFF7A9FB012077
:100E8000FFF7A6FB0220FFF7A3FB0620FFF7A0FB5E
:100E900010BD000010B5FE484079401EFD4951F8D4
:100EA000202001210420FFF74BFDFB4801230621F0
:100EB00002680220FFF77FFEF74800680A2806D282
:100EC0002020FFF794FC2020FFF791FC06E0F24879
:100ED0000068642802D22020FFF789FCEE48012335
:100EE000062142680320FFF766FEEB4840680A28A7
:100EF00006D22020FFF77BFC2020FFF778FC06E0DD
:100F0000E5484068642802D22020FFF770FCE248E0
:100F10000123062182681846FFF74DFEDE488068EF
:100F20000A2806D22020FFF762FC2020FFF75FFC92
:100F300006E0D9488068642802D22020FFF757FCD9
:100F400010BD10B5D2484079401ED24951F820203A
:100F500004210220FFF7F4FC02210320FFF7B0FC7C
:100F60001E20FFF744FC1F20FFF741FC10BD10B509
:100F7000C748007907280BDBC5480079C01EC74960
:100F800031F81020012306210320FFF714FE0AE0A8
:100F9000BF480079C01EC14931F810200123062145
:100FA0000220FFF708FE02210320FFF789FC1E2024
:100FB000FFF71DFC1F20FFF71AFC10BD10B5B84845
:100FC000C07900286ADDFFF7C5FE0120B549087128
:100FD0000020C872B2480078012805D1B24801212A
:100FE00002680220FFF7ACFCAD484078012805D12B
:100FF000AD48012142680220FFF7A2FCA848807892
:10100000012805D1A848012182680220FFF798FC39
:10101000A348C078012805D1A3480121C268022055
:10102000FFF78EFC9E480079012805D19E480121DA
:1010300002690220FFF784FC99484079012805D114
:101040009948012142690220FFF77AFC944880798F
:10105000012805D19448012182690220FFF770FC24
:101060008F48C07A012805D18F480121C26902202A
:10107000FFF766FC8A48807A012805D18A48012159
:10108000026A0220FFF75CFC8548407A012805D1FE
:1010900085480121426A0220FFF752FC10BD10B5BD
:1010A000824C012108462268FFF74AFC01210220F8
:1010B0006268FFF745FC01210320A268FFF740FCAE
:1010C00001210420E268FFF73BFC10BD70B5002051
:1010D000774908707248C07900287DD1754800882A
:1010E000012835D1714C283408706948807902286C
:1010F00002D06748807998B9012108462268FFF735
:101100001FFC012102206268FFF71AFC0121032065
:10111000A268FFF715FC01210420E268FFF710FC2C
:101120000DE0FFF7E1F900F058FA00205849087087
:1011300048708870C87008710A205F490870544868
:1011400080790228EDD0524880790028E9D085E0E6
:101150005848008802284AD1544C3C340120544954
:1011600008704B488079022803D0494880790028CC
:1011700074D1012108462268FFF7E2FB0121022019
:101180006268FFF7DDFB01210320A268FFF7D8FBAF
:1011900001210420E268FFF7D3FB002047490860E3
:1011A00020E0464800680A21B0FBF1F0C0F10A05D2
:1011B0002A4603210846FFF72CFC404800680A280D
:1011C00002D92020FFF713FB00F007FA0020304976
:1011D00008704870887000E07DE0C87008710A20CF
:1011E00035490870354800686428DAD336E031485C
:1011F0000088032832D12D4C503401202C4908702E
:1012000023488079022802D02148807930BB01210F
:1012100008462268FFF794FB012102206268FFF76D
:101220008FFB01210320A268FFF78AFB0121042024
:10123000E268FFF785FB00F0D0F900201449087040
:1012400048708870C87008710A201B49087000BF78
:1012500008211B4800F045FF0128F9D01448007808
:10126000012838D10020124908700120084908716E
:10127000887100200B49C871012008700020487057
:10128000012008720020887001204872002019E0B7
:1012900000000020500000201C0200200A00002056
:1012A000A0010020F40100205C0000208400002048
:1012B0009C010020B801002048000020F00100201F
:1012C00000080140C87001208872002008710120C8
:1012D000C87200F0E0FD70BD10B5504C5048007869
:1012E000B0B901204E490870012108462268FFF775
:1012F00027FB012102206268FFF722FB0121032066
:10130000A268FFF71DFB01210420E268FFF718FB2C
:1013100044480123062142680320FFF74CFC414862
:1013200040680A2806D22020FFF761FA2020FFF744
:101330005EFA06E03B484068642802D22020FFF7AE
:1013400056FA38480123062182680320FFF733FC50
:10135000344880680A2806D22020FFF748FA202067
:10136000FFF745FA06E02F488068642802D2202063
:10137000FFF73DFA10BD70B505462B48C07900282F
:1013800041D12A48007801280CD100202749087053
:101390000E222749274802F049FE002025490871FE
:1013A0000120C87224488079012823D1234800787D
:1013B00085421DD005EB85001849143901EB8000EA
:1013C00000F150041D480570012108462268FFF70E
:1013D000B7FA012102206268FFF7B2FA0121032067
:1013E000A268FFF7ADFA01210420E268FFF7A8FA2E
:1013F0002069804710488079022802D00E48807901
:1014000008B9FFF763FE0848C079002804DDFFF73C
:10141000D5FD01200549087070BD0000980000202E
:101420009D0100201C020020A00100204900002096
:1014300002020020F40100200000002048000020EB
:101440001CB54FF4E06001F0B9F81C208DF80400E1
:1014500000208DF8050003208DF8060001208DF88E
:10146000070001A801F0AFF80B208DF80000012063
:101470008DF8010000208DF8020001208DF8030096
:10148000684601F0A0F81CBD0EB50121084601F028
:101490003AF84FF0804001F0FFF841F61F40ADF8F8
:1014A000040040F2E730ADF800000020ADF8020083
:1014B00069464FF0804001F05AF90121880701F098
:1014C000B7FE01221146900701F0F2FB01218807C7
:1014D00001F0D3FB0021012001F015F80EBD00B58D
:1014E00089B041F2883008900121C80200F0FEFF67
:1014F00042F21070ADF8180040F60F60ADF814001D
:101500000020ADF81A00ADF8160005A9184801F042
:101510002EF97020ADF804000120ADF8060004207B
:10152000ADF80800BDF82000ADF80A000220ADF8C3
:101530000C000820ADF80E004001ADF810000020AE
:10154000ADF8120001A90A4801F02AF9082108485B
:1015500001F0C4FC0121064801F090FC012104487F
:1015600001F08BFB0121024801F093FB09B000BDA3
:10157000002C01400EB50121142000F0B7FF4FF4FC
:101580007070ADF8080003208DF80A0048208DF82F
:101590000B0002A9B44800F013FD0F20ADF80400C1
:1015A00003208DF8060048208DF8070001A9AF48F8
:1015B00000F006FD0121042000F098FF4FF4FE60CA
:1015C000ADF8000003208DF8020010208DF8030014
:1015D0006946A64800F0F4FC0EBD4FF4FE60A34936
:1015E0001031086070474FF4FE60A0491431086064
:1015F000704710B59D4800F07DFD10F0070F3ED1FB
:10160000994800F077FD10F4707F38D19848C07A7F
:101610009749497A08449649897A40182FD144F667
:101620002060FEF7ACFF914800F064FD10F0070F5A
:1016300024D18D4800F05EFD10F4707FF8D18C4805
:10164000C07A8B49497A08448949897A4018EFD190
:101650008749C871087048708870C87008714871EF
:1016600088710846007A20B9012008720A20814951
:1016700008700120804908700020C871B3E044F66A
:101680002060FEF77CFF794800F034FD10F0070F72
:101690000ED1754800F02EFD10F4707F08D174480B
:1016A000C07A7349497A08447149897A4018E5D06B
:1016B00001206F49C871002008727048007820B975
:1016C0000E226D496E4802F0B1FC4021664800F0E0
:1016D00008FD012812D1664908706749C8710020C9
:1016E0000870012008720020487001204872002014
:1016F0008870012088720020C87002E000205C49D8
:1017000008708021584800F0ECFC012806D15849A7
:101710004870594948720020887002E000205449FE
:1017200048704FF48071504800F0DBFC01280AD16A
:101730004F4988705049C8710020087001204872D4
:101740000020887002E00020494988704FF4007141
:10175000454800F0C6FC01280AD14549C8704649F1
:10176000C87100200870012048720020887002E0D3
:1017700000203F49C87001213C4800F0B2FC01281C
:101780000AD13B4908713C49C8710020087001200A
:1017900048720020887002E000203549087102215B
:1017A000324800F09EFC012806D131494871324987
:1017B000C8710020087002E000202D494871042102
:1017C0002A4800F08EFC01280AD1294988712A494B
:1017D000C87100200870012048720020887002E063
:1017E00000202349887110BD10B5FFF702FF224881
:1017F000007800012049497840EA41101E49897863
:1018000040EA81101C49C97840EAC1101A49C97AD6
:1018100040EA01201849497940EA4120164989796E
:1018200040EA81201149143108601348C079000151
:101830001149097A40EA41100F49497A40EA81107A
:101840000D49897A40EAC1100B49097940EA012023
:101850000949097B40EA41200749497B40EA812048
:1018600002491031086010BD00100140000801401D
:10187000A001002048000020F401002049000020C1
:101880000202002008B50121102000F02FFE3F20A9
:10189000ADF8000000208DF803006946FE4800F016
:1018A0008FFB08BD00B585B00121480200F01EFE87
:1018B0000020009001208DF804008DF80500002024
:1018C0000290039006208DF810006946F34801F05D
:1018D000F4FC052301220A21F04801F086FD0523CE
:1018E00002220B21ED4801F080FD052303220C218B
:1018F000EA4801F07AFD052304220D21E74801F0B2
:1019000074FD05231A460E21E44801F06EFD0523FF
:1019100006220F21E14801F068FD0121DF4801F0B6
:1019200003FD0121DD4801F0BCFD0121DB4801F090
:10193000F0FCDA4801F00FFD00BFD84801F010FDBF
:101940000028FAD1D54801F015FD00BFD34801F0B9
:1019500016FD0028FAD10121D04801F01AFD05B08A
:1019600000BD00B58BB00121084600F0B2FDCC48A7
:1019700001F08EFEC9484C300090CA48019000200A
:1019800002904FF416700390002004908020059080
:1019900040000690800007902020089000020990E7
:1019A00000200A906946BE4801F00BFF0121BC48A7
:1019B00001F032FF0BB000BD10B5FFF763FFFFF77A
:1019C00071FFFFF7CEFFFFF78AFD10BD70B5002055
:1019D00070E00024B44D2C60002314E003EB4304BA
:1019E000B04D05EB840434F81040AF4D2D682C4405
:1019F000AD4D2C602C4624686425B4FBF5F4AB4D4A
:101A000025F810405B1C642BE8D3A94C2478A4B9BA
:101A100000220AE0A54C34F8104000EB8005A54EEA
:101A200006EB051545F82240521C142AF2D39F4CB0
:101A300034F81040A04D45F820409D4C2478012CEE
:101A400037D19A4C34F8104000EB8005994E06EBE4
:101A500005159A4E56F8206045F82640974C54F8E4
:101A60002040641C954D45F820402C4654F82040F9
:101A7000142C02D1002445F8204000220EE000EB97
:101A800080048C4D05EB041454F822408A4D55F81F
:101A900020502C44884D45F82040521C142AEED387
:101AA000854C54F820401425B4FBF5F4824D45F8DC
:101AB0002040401C06288CD3002141E04C007E4D84
:101AC00055F8244040F639156C434D006D1C7A4E94
:101AD00056F82550B4FBF5F4A4F62524784E0D1DD8
:101AE00036F815502C44774D45F82140704C247839
:101AF0002CB92C4654F82140734D45F82140724CC6
:101B000054F821506F4C54F82140641EA54206D26F
:101B10006D4C54F82140641C6B4D45F821406A4CD3
:101B200054F82150674C54F82140641CA54206D952
:101B3000654C54F82140641E634D45F82140491C12
:101B40000329BBD301245A4D2C7070BD10B5FFF78B
:101B50003DFF5D48806864282FD21BE0FFF736FF09
:101B600059480068142804D801205849C87000203A
:101B7000887255480068322808D901205349C87036
:101B800000208872012008700020C871FFF7A4FBB4
:101B9000FFF72AFE4C4800686428DFD34A480068F3
:101BA00064280AD300204949C870012088720020A7
:101BB00008700120C871FFF717FE10BD10B542482C
:101BC0000068642866D3404800683D49C988884257
:101BD00005D83D4840683A49C98888420CD9012057
:101BE0003B498872C8713B48007840B90E2237499A
:101BF000394802F01BFA02E0002035498872324869
:101C000000682F498988884205D32F4840682C49AD
:101C1000898888420CD201202D494872C8712D480C
:101C2000007840B90E2229492B4802F0FFF902E062
:101C3000002027494872244880681E2804D322487F
:101C40008068B0F5E17F0CD901202149C872C871C4
:101C50002048007840B90E221C491F4802F0E6F9DE
:101C600002E000201A49C872174800681449098820
:101C7000884204D901201549887000204872104814
:101C8000008816490978401A0F49096888422BD9FB
:101C9000002025E041E00000001001400024014048
:101CA0000800024020040020B4010020D0080020D9
:101CB000B001002028020020DC08002008040020D9
:101CC0000A000020100200201C020020F401002065
:101CD000A00100204900002002020020070000208F
:101CE0000E498870012048720D4840680D494988A6
:101CF000884204D901200949487000200872094827
:101D0000408809494978401A05494968884204D9F8
:101D10000020024948700120087210BDF401002023
:101D20001C0200200A00002007000020014608884D
:101D300070472DE9F04105460E461746002407E09E
:101D400036F81410284601F0EAFEAD1C601C84B27F
:101D5000BC42F5DBBDE8F08130B503460C461546C4
:101D6000002207E01846FFF7E1FF24F812009B1C51
:101D7000501C82B2AA42F5DB30BD2DE9F05F8046EF
:101D80008A461746B8F1006F02D35348804501D305
:101D9000BDE8F09F01F0B9FDA8F1006B4FEADB252B
:101DA000CBF34909C9F58064A74200DC3C464DE00D
:101DB0004FF0006101EBC5204A144849FFF7CCFF02
:101DC00000260BE009EB0600444931F81000A0F5AD
:101DD0007F41FF3900D003E0701C86B2A642F1DBE0
:101DE00000BFA6421BDA4FF0006101EBC52001F0F5
:101DF000D3FD002608E03AF8160006EB0901374A41
:101E000022F81100701C86B2A642F4DB4FF000618C
:101E100001EBC5204A143149FFF78BFF04E022464D
:101E200051464046FFF785FFA74200D10FE06D1CE9
:101E30004FF000090AEB440AA044381B87B2B7F5FB
:101E4000806F02DD4FF4806400E03C46B0E700BFE5
:101E500001F061FD00BF9BE710B5214840792149A1
:101E600008802148008888801F484088C8801E4814
:101E7000808808811C48C08848811B480089888167
:101E800019484089C8811848808908821222174859
:101E9000FFF773FF10BD00B5122212491348FFF778
:101EA0005BFF104800780E4948710E4880880E4943
:101EB00008800C48C08848800A4800898880094802
:101EC0004089C8800748808908810648C0894881C0
:101ED0000448008A888100BD00000408F40800203E
:101EE00000000020B80100200A00002000F80308CC
:101EF00010B50446C549601A8C422FD009DCC4488D
:101F0000201810D0B0F5806F16D0B0F5006F4AD110
:101F10001BE0B0F5806F2AD0B0F5006F30D0B0F57F
:101F2000406F40D135E00121042000F0F9FA002192
:101F3000042000F0F5FA37E00121082000F0F0FA63
:101F40000021082000F0ECFA2EE00121102000F022
:101F5000E7FA0021102000F0E3FA25E0012120201B
:101F600000F0DEFA0021202000F0DAFA1CE0012166
:101F7000402000F0D5FA0021402000F0D1FA13E013
:101F80000121802000F0CCFA0021802000F0C8FA66
:101F90000AE00121080200F0C3FA00214FF480702A
:101FA00000F0BEFA00E000BF00BF10BD10B5012177
:101FB000084600F0B5FA0021012000F0B1FA10BD8A
:101FC0002DE9F041024600250026002000230024D0
:101FD000002791F803C00CF00F0591F803C01CF026
:101FE000100F03D091F802C04CEA050591F800C02B
:101FF000BCF1000F31D0146800202BE04FF0010C31
:102000000CFA00F3B1F800C00CEA03069E4220D19E
:1020100083004FF00F0C0CFA03F7BC4305FA03FCE6
:102020004CEA040491F803C0BCF1280F06D14FF02C
:10203000010C0CFA00FCC2F814C00AE091F803C0CD
:10204000BCF1480F05D14FF0010C0CFA00FCC2F8AE
:1020500010C0401C0828D1D31460B1F800C0BCF1F6
:10206000FF0F34DD546800202EE000F1080C4FF023
:10207000010808FA0CF3B1F800C00CEA03069E420E
:1020800021D183004FF00F0C0CFA03F7BC4305FA83
:1020900003FC4CEA040491F803C0BCF1280F05D1FD
:1020A00000F1080C08FA0CF8C2F8148091F803C08B
:1020B000BCF1480F07D100F1080C4FF0010808FAF5
:1020C0000CF8C2F81080401C0828CED35460BDE83C
:1020D000F0814FF6FF710180022181700421C170EF
:1020E00070470246002093680B4201D0012000E0B7
:1020F000002070470146886880B270470246002081
:10210000D3680B4201D0012000E000207047014657
:10211000C86880B2704701617047416170470AB179
:10212000016100E041617047C16070474FF4803247
:102130000A438261816182618269826970470246D5
:102140000020344B18684FF68073184040EA0210A4
:102150000843304B186070472F49C8617047F0B58D
:102160000A4600230024002100252A4E7168C0F38E
:10217000034583B200F44016B6F5401F08D121F0A4
:102180007061244E766826F07066224F7E6012E001
:1021900000F48016B6F5801F06D1032606FA05F472
:1021A000A14341F0706106E0460D360103FA06F6E0
:1021B000B14341F0706122B1460D360103FA06F6D3
:1021C0003143144E7160F0BD30B500228B071C0FF7
:1021D0000F2303FA04F20F4B08338C1053F824300A
:1021E00093430C4C08348D1044F8253023468C1052
:1021F00053F824308C07240F00FA04F42343054CD1
:1022000008348D1044F8253030BD00000014014022
:1022100000F8FEBF0000014000002042DC480068DA
:1022200040F00100DA49086008464068D949084092
:10223000D749486008460068D7490840D449086033
:102240000846006820F4802008600846406820F4B2
:10225000FE004860002088607047CD49096821F47D
:102260008031CB4A11601146096821F48021116048
:10227000B0F5803F03D0B0F5802F0ED106E0C44901
:10228000096841F48031C24A116007E0C049096819
:1022900041F4A021BE4A116000E000BF00BF7047BA
:1022A00010B501460022002300204A11012A02D164
:1022B000B74C236806E0022A02D1B54C236A01E03C
:1022C000B34C636A01F01F02012494401C4201D008
:1022D000012000E0002010BD38B50020009000244F
:1022E000002500BF3120FFF7DBFF05460098401CAA
:1022F00000901DB90098B0F5A06FF3D13120FFF721
:10230000CFFF08B1012400E00024204638BD01467B
:1023100000209F4A106820F0F80040EAC1001060D9
:1023200070479E490860704702460020984B5868E5
:1023300020F47C1042EA01031843954B5860704723
:1023400096490866704701460020914A506820F07F
:1023500003000843506070478D48406800F00C004F
:102360007047014600208A4A506820F0F000084378
:102370005060704701460020854A506820F4E060B4
:1023800008435060704701460020814A506820F49D
:10239000605040EAC1005060704729B17C4A527ACF
:1023A00002437B4B5A7204E0794A527A8243784B5B
:1023B0005A7270477A490860704701460020744A93
:1023C000506820F440400843506070470021754A2F
:1023D00011706F4A82F82010012802D0042808D119
:1023E00003E001216F4A117004E005216D4A11706C
:1023F00000E000BF00BF70476B4908607047644948
:10240000096A0143624A11627047674944390860AA
:10241000704730B500210022002400235C4D6D6818
:1024200005F00C0121B1042905D0082923D105E0CC
:102430005E4D056022E05D4D05601FE0544D6D6806
:1024400005F47012022505EB9242514D6D6805F4BA
:1024500080341CB9564D554305600BE04C4D6D68FA
:1024600015F4003F03D0524D5543056002E04F4D37
:102470005543056002E04D4D056000BF00BF444D6F
:102480006D6805F0F00109094A4D6B5C0568DD4097
:1024900045603F4D6D6805F4E061090A454D6B5C90
:1024A0004568DD4085603A4D6D6805F46051C90AA4
:1024B000404D6B5C4568DD40C560354D6D6805F489
:1024C0004041890B3C4D6B5CC568B5FBF3F505617C
:1024D00030BD29B12E4A526902432D4B5A6104E0A6
:1024E0002B4A526982432A4B5A61704729B1284AC4
:1024F00092690243264B9A6104E0254A926982431D
:10250000234B9A61704729B1214AD2690243204B7B
:10251000DA6104E01E4AD26982431D4BDA617047DA
:1025200029B11B4AD2680243194BDA6004E0184A09
:10253000D2688243164BDA60704729B1144A126997
:102540000243134B1A6104E0114A12698243104B93
:102550001A61704714494039086070470F49C864D0
:1025600070470B49C87170470948406A40F0807055
:1025700007494862704701460020054A92680A42AE
:1025800001D0012000E000207047014988727047A7
:10259000001002400000FFF8FFFFF6FE000042427C
:1025A000D8004242201002408004424200127A00C9
:1025B00000093D00D0010020E00100203149014325
:1025C000314A1160704770B5002100230F22C47892
:1025D0000CB32D4C246804F4E064C4F5E064210AD3
:1025E000C1F10403CA40447804FA03F1847814402A
:1025F00021430901254C0678A155047804F01F05F4
:102600000124AC4005786D114FF0E02606EB8505FE
:10261000C5F8004109E0047804F01F050124AC402E
:102620001B4D0678761145F8264070BD194A0A40C0
:102630000243154B1B1F1A60704739B1124A121D15
:1026400012680243104B1B1D1A6006E00E4A121D51
:10265000126882430C4B1B1D1A607047042808D176
:102660004FF0E021096941F004014FF0E0221161CF
:1026700007E04FF0E021096921F004014FF0E0226A
:10268000116170470000FA050CED00E000E400E085
:1026900080E100E080FFFF1F10B50446F749601A93
:1026A0008C4245D00CDCB4F1804F1DD0F44820188A
:1026B00023D0B0F5806F29D0B0F5006F54D12EE053
:1026C000B0F5806F3DD0B0F58E3F03D0B0F5923FAE
:1026D0004AD13FE00121C802FFF722FF00214FF459
:1026E0000060FFF71DFF40E001210846FFF725FFCE
:1026F00000210120FFF721FF37E001210220FFF731
:102700001CFF00210220FFF718FF2EE0012104200A
:10271000FFF713FF00210420FFF70FFF25E0012141
:102720000820FFF70AFF00210820FFF706FF1CE042
:1027300001211020FFF701FF00211020FFF7FDFE0F
:1027400013E001212020FFF7F8FE00212020FFF7F1
:10275000F4FE0AE001214803FFF7E2FE00214FF4F6
:102760000050FFF7DDFE00E000BF00BF10BD028893
:1027700002F08F020280CA884B881A4303881A43EA
:1027800002808A8882850A880285BE4A904202D0E9
:10279000BD4A904201D10A7A0286012282827047A4
:1027A00070B5002400220023058C4FF6FE763540DC
:1027B0000584028C8388048B4FF68F752C400D881E
:1027C0002C43751E2A400D892A434D882A43CD8803
:1027D0008586AC4DA84202D0AB4DA84213D14FF62E
:1027E000F7752A404D892A434FF6FB752A408D889C
:1027F0002A4347F6FF652B4047F6FF552B408D894E
:102800002B43CD892B4383800483028470BD70B534
:10281000002400220023058C4FF6EF763540058416
:10282000028C8388048B48F6FF752C400D884FF688
:10283000FF7606EA05252C434FF6DF752A400D8901
:1028400006EA05152A434D8806EA05152A43CD8870
:1028500005878C4DA84202D08B4DA8421DD14FF662
:102860007F752A404D894FF6FF7606EA05152A4303
:102870004FF6BF752A408D8806EA05152A4347F6AC
:10288000FF352B4047F2FF752B408D8906EA850501
:102890002B43CD8906EA85052B438380048302847C
:1028A00070BD70B5002400220023058C4FF6FF6632
:1028B00035400584028C8388848B4FF68F752C40BD
:1028C0000D882C434FF6FF552A400D894FF6FF76B1
:1028D00006EA05252A434D8806EA05252A43CD88C0
:1028E0008587684DA84202D0674DA8421DD14FF29E
:1028F000FF752A404D894FF6FF7606EA05252A43E3
:102900004FF6FF352A408D8806EA05252A4346F60C
:10291000FF752B4045F6FF752B408D8906EA05159E
:102920002B43CD8906EA05152B43838084830284DB
:1029300070BD70B5002400220023058C4EF6FF7692
:1029400035400584028C8388848B48F6FF752C40C3
:102950000D884FF6FF7606EA05252C434DF6FF75E8
:102960002A400D8906EA05352A434D8806EA0535D1
:102970002A43CD88A0F84050424DA84202D0424D93
:10298000A84207D1C3F30D038D894FF6FF7606EAFF
:1029900085152B4383808483028470BD828B4FF224
:1029A000FF331A408283828B4FF6FF7303EA0123C1
:1029B0001A4382837047F0B50C4615460021002269
:1029C0000026078C4EF6FF7C07EA0C070784818BF4
:1029D000028C4FF6FF7707EA043640F6FF4739408E
:1029E0004FF6FF7707EA05274FF6FF7C0CEA033C1A
:1029F00047EA0C0739434DF6FF773A4046F48057D3
:102A00003A4381830284F0BD828B4FF6F3731A4000
:102A10008283828B0A4382837047F0B50C46154649
:102A2000002100220026078C4FF6FF6C07EA0C07F6
:102A30000784818B028C4FF6FF7707EA04264FF656
:102A40000C7739404FF6FF7707EA03172F433943D6
:102A50004FF6FF573A4046F480773A438183028429
:102A6000F0BD028B4FF2FF331A400283028B4FF608
:102A7000FF7303EA01231A430283704700100040EA
:102A800000FCFFBF002C014000340140F0B50C46B3
:102A90001546002100220026078C4FF6EF7C07EA3E
:102AA0000C070784018B028C4FF6FF7707EA0416A8
:102AB00040F6FF4739404FF6FF7707EA03373943BF
:102AC0004FF6FF7707EA052739434FF6DF773A409D
:102AD00046F010073A4301830284F0BD028B4FF6A3
:102AE000F3731A400283028B0A4302837047F0B5E6
:102AF0000C46154600210022068C4FF6FE773E401C
:102B00000684018B028C4FF60C7631407E1C06EA5F
:102B100003162E4331437E1E324044F001063243F9
:102B200001830284F0BD70B505460C46208850B97B
:102B30002389A28861882846FFF7D9FFE1882846C3
:102B4000FFF7CCFF25E0208804280AD12389A2883A
:102B500061882846FFF79AFFE1882846FFF781FF42
:102B600017E0208808280AD12389A288618828468E
:102B7000FFF753FFE1882846FFF746FF09E0238966
:102B8000A28861882846FFF716FFE1882846FFF7EC
:102B900005FF70BD2DE9F04105460C4600260127D2
:102BA000608808B9022600E00026A088012801D12B
:102BB000022700E001272088A0B92389A288618824
:102BC0002846FFF794FFE1882846FFF787FF23890F
:102BD0003A4631462846FFF759FFE1882846FFF775
:102BE00040FF13E02389A28861882846FFF74EFF43
:102BF000E1882846FFF735FF23893A4631462846C3
:102C0000FFF775FFE1882846FFF768FFBDE8F08110
:102C10000A884B881A438B881A43CB881A430B893E
:102C20001A434B891A438B891A43A0F844207047F2
:102C30004FF6FF71818000210180C18041800172C7
:102C400070470021018041808180C18001814181E4
:102C50008181C181704700210180418001218180F3
:102C60000021C18001817047002101804180818065
:102C7000C180018141818181704721B1028842F088
:102C80000102028004E0028840F2FE331A40028012
:102C9000704731B1B0F8442042F40042A0F844201B
:102CA00005E0B0F84420C2F30E02A0F844207047BB
:102CB0001AB183890B43838102E083898B4383812B
:102CC00070478182704741EA0203A0F8483070479C
:102CD0001AB183890B43838102E083898B4383810B
:102CE000704701894FF6F8721140018170470A461A
:102CF000002101894FF68F731940114301817047FC
:102D000030B504460D4629462046FFF7F0FF2089DE
:102D100040F00700208130BD2DE9F04104460D460A
:102D200016461F46602D06D13B46012231462046FD
:102D3000FFF7ACFE05E03B46012231462046FFF797
:102D4000D6FE29462046FFF7D2FF208940F0070033
:102D50002081BDE8F08170B50C4600210189C9B21F
:102D600044EA02054FF6FF7606EA03263543294377
:102D7000018170BD2DE9F04105460E461746984683
:102D8000002443463A4631462846FFF7E4FF2C89A3
:102D90004FF6F870044044F007044FF68F7004407B
:102DA00044F070042C81BDE8F081F0B504460D4676
:102DB00016461F463B46324629462046FFF7CBFFC4
:102DC000208940F480402081F0BD018582827047D7
:102DD0000A460021018840F28F33194011430180D7
:102DE0007047F0B50C4615461E4600210022002310
:102DF0000189028B038C4FF6F877394021434FF657
:102E0000FC473A4040F201173A434FF6DD773B402A
:102E10004FF6FF7707EA06172F433B4301810283F2
:102E20000384F0BD0A460021018B4FF68F731940D1
:102E30001143018370470A460021018B48F6FF7356
:102E400019404FF6FF7303EA0223194301837047C9
:102E50000A460021818B4FF68F73194011438183FD
:102E600070470A460021818B48F6FF7319404FF6E0
:102E7000FF7303EA022319438183704721B102885B
:102E800042F08002028004E0028840F27F331A4060
:102E90000280704721B1828842F00402828004E0FF
:102EA00082884FF6FB731A408280704721B1828876
:102EB00042F00802828004E082884FF6F7731A40DD
:102EC0008280704721B1828842F00102828004E052
:102ED00082884FF6FE731A40828070470A460021AE
:102EE000018B4FF6F77319401143018370470A466F
:102EF0000021018B4FF2FF7319404FF6FF7303EA75
:102F000002231943018370470A460021818B4FF643
:102F1000F77319401143818370470A460021818B62
:102F20004FF2FF7319404FF6FF7303EA0223194370
:102F3000818370470A460021018B4FF6FB731940CD
:102F40001143018370470A460021018B4FF6FF337E
:102F500019404FF6FF7303EA0223194301837047B8
:102F60000A460021818B4FF6FB7319401143818380
:102F700070470A460021818B4FF6FF3319404FF608
:102F8000FF7303EA02231943818370470A46002135
:102F9000018B4FF67F7319401143018370470A4636
:102FA0000021018BC1F30E014FF6FF7303EA0223E8
:102FB0001943018370470A460021818B4FF67F73C6
:102FC00019401143818370470A460021818BC1F368
:102FD0000E014FF6FF7303EA022319438183704702
:102FE0000A460021018C4FF6FD73194011430184FC
:102FF00070470A460021018C4FF6F77319401143C0
:10300000018470470A460021018C4FF6DF73194096
:103010004FF6FF7303EA02131943018470470A460F
:103020000021018C4FF67F7319404FF6FF7303EABE
:1030300002131943018470470A460021018C4FF6A0
:10304000FF5319404FF6FF7303EA0223194301842B
:1030500070470A460021018C4FF2FF7319404FF66A
:10306000FF7303EA02231943018470470A460021D3
:10307000018C4DF6FF7319404FF6FF7303EA0233DC
:1030800019430184704710B5038C01248C40A3437D
:103090000384038C02FA01F4A4B22343038410BD19
:1030A00010B5038C04248C40A3430384038C02FAE0
:1030B00001F4A4B22343038410BD30B5038C012472
:1030C0008C40A343038409B1082918D100F11803E7
:1030D00003EB61031B684FF68F74234000F1180463
:1030E00004EB6104236000F1180303EB61031B6828
:1030F000134300F1180404EB610423601FE00B1F6D
:10310000C3F34E0400F118031B5948F6FF74234023
:103110000C1FC4F34E0500F1180463510B1FC3F3D9
:103120004E0400F118031B594FF6FF7404EA022401
:1031300023430C1FC4F34E0500F11804635130BD46
:1031400021B1028842F00202028004E0028840F2CB
:10315000FD331A400280704721B1028842F0040218
:10316000028004E0028840F2FB331A40028070477C
:1031700021B1828842F08002828004E082884FF68A
:103180007F731A4082807047028840F2F7331A40FA
:10319000028002880A430280704782884FF68F734C
:1031A0001A40828082880A438280704702894FF6E3
:1031B000F8731A40028102890A430281704702892A
:1031C0004FF67F731A40028102890A4302817047D9
:1031D0008184704781857047818670470187704779
:1031E00081877047A0F8401070470288D2B20280F1
:1031F00002880A43028070470146888E7047014664
:10320000088F70470146888F70470146B1F840002B
:1032100070470146888C70470146088D704702460A
:103220000020138A0B4201D0012000E000207047EB
:10323000CA430282704730B50246002000230024B2
:10324000158A05EA0103958905EA010413B10CB159
:10325000012000E0002030BDCA4302827047000018
:1032600010B50446F748201806D0B0F5806F0DD091
:10327000B0F5C05F1ED113E001214802FFF750F9FD
:1032800000214FF40070FFF74BF914E00121880290
:10329000FFF746F900214FF48060FFF741F90AE09B
:1032A0000121C803FFF73CF900214FF40040FFF76C
:1032B00037F900E000BF00BF10BD30B50246002066
:1032C00000235068E04C20400D790C6844EA052446
:1032D000204350609068DD4C2040D1E902542C43DB
:1032E0004D7944EA450420439060D06A20F4700090
:1032F0000C7C641E1C43E3B240EA0350D06230BD34
:1033000000210160017141718160C160012101747E
:10331000704721B1826842F00102826003E0826856
:1033200022F001028260704721B1826842F480720B
:10333000826003E0826822F480728260704710B578
:103340000023CBB21AB144681C43446002E04468D5
:103350009C43446010BD816841F008018160704762
:10336000014600208A6812F0080F01D0012000E019
:1033700000207047816841F0040181607047014678
:1033800000208A6812F0040F01D0012000E0002024
:10339000704721B1826842F4A002826003E0826833
:1033A00022F4A00282607047014600208A6812F46D
:1033B000800F01D0012000E00020704710B50A46C0
:1033C00000210023416821F46041531E41EA43314A
:1033D000416010BD21B1426842F40062426003E0E6
:1033E000426822F4006242607047F0B504460D4620
:1033F00000200021092D11DDE068A5F10A0606EB89
:103400004607072606FA07F18843A5F10A0606EBE8
:10341000460603FA06F10843E0600CE0206905EB7C
:103420004507072606FA07F1884305EB450603FA28
:1034300006F108432061072A0FDA606B561E06EB7F
:1034400086071F2606FA07F18843561E06EB8606F6
:1034500005FA06F10843606322E00D2A0FDA206BBB
:10346000D61F06EB86071F2606FA07F18843D61FEC
:1034700006EB860605FA06F10843206310E0E06AD1
:10348000A2F10D0606EB86071F2606FA07F1884310
:10349000A2F10D0606EB860605FA06F10843E06286
:1034A000F0BD21B1826842F48012826003E082683C
:1034B00022F48012826070470146C86C80B2704767
:1034C00063480068704721B1426842F480624260FC
:1034D00003E0426822F480624260704721B1426892
:1034E00042F48052426003E0426822F4805242601B
:1034F00070470A460021816821F4E0411143816050
:10350000704721B1826842F40042826003E0826821
:1035100022F400428260704721B1826842F40212B4
:10352000826003E0826822F40212826070470146E2
:1035300000208A6812F4001F01D0012000E0002062
:103540007047F0B5044615460020002200260929E0
:1035500011DDE068A1F10A0707EB470C072707FA1E
:103560000CF29043A1F10A0707EB470703FA07F2B1
:103570001043E0600CE0206901EB410C072707FADB
:103580000CF2904301EB410703FA07F2104320616C
:10359000A06BC0F30156EF1C06F1010CA7EB0C0762
:1035A00007EB870C1F2707FA0CF29043EF1C06F17C
:1035B000010CA7EB0C0707EB870701FA07F2104392
:1035C000A063F0BD10B50A4600210023816B21F4F1
:1035D0004011531E41EA0351816310BD42507047B0
:1035E00002465018806A80B270470A46002141683E
:1035F000184B194011434160704741628262704725
:103600000A460021416821F01F01114341607047C3
:1036100040B10F494439096841F400010C4A443A69
:10362000116007E00A494439096821F40001084A99
:10363000443A116070470246002013680B420BD0D9
:1036400001200AE000DCFEBFFFFEF0FFFDF7F1FF06
:103650004C240140FFFD3FFF00207047CA43026039
:10366000704770B502460020002300240B125568F5
:10367000CEB205EA060415681D4202D00CB1012045
:1036800000E0002070BD00220A12D343036070479F
:10369000016821F001010160002101604160816049
:1036A000C160864A811A90425BD012DC844AA0EB4A
:1036B000020190423AD007DC824941181BD01429FC
:1036C00022D028297AD128E0142938D0282975D188
:1036D0003EE0B1F56C7F5BD006DCB1F5627F49D08E
:1036E000B1F5677F6AD14CE0B1F5717F57D0B1F584
:1036F000767F63D15BE072494439496841F00F013C
:103700006F4A443A51605AE06D494439496841F082
:10371000F0016B4A443A516051E0694944394968C3
:1037200041F47061664A443A516048E06449443962
:10373000496841F47041624A443A51603FE060494F
:103740004439496841F470215D4A443A516036E099
:103750005B494439496841F47001594A443A51601F
:103760002DE057494439496841F07061544A443A60
:10377000516024E05449096841F00F01524A116038
:103780001DE05149096841F0F0014F4A116016E00F
:103790004D49096841F470614B4A11600FE04A4994
:1037A000096841F47041484A116008E006E0464962
:1037B000096841F47021444A116000E000BF00BF75
:1037C000704710B50022026847F6F0739A430C6AFE
:1037D0008B6823430C6923434C6923438C6923433F
:1037E000CC6923434C6A23438C6A23431A43026007
:1037F000CB6843600B6883604B68C36010BD0021D9
:10380000016041608160C160016141618161C161AC
:10381000016241628162704721B1026842F0010297
:10382000026003E0026822F00102026070471AB1F0
:1038300003680B43036002E003688B430360704737
:103840000146486880B2704701460020002211F00E
:10385000805F03D01C4B1B1F1A6802E0184B443BCF
:103860001A680A4201D0012000E00020704710F0E1
:10387000805F02D01449086002E011494439486071
:10388000704701460020002211F0805F03D00E4BEC
:103890001B1F1A6802E00A4B443B1A680A4201D017
:1038A000012000E00020704710F0805F02D0064940
:1038B000086002E0024944394860704780000240D5
:1038C00044000240F8FFFDBF04040240014600200E
:1038D000FB4A106800F03800084310607047F84950
:1038E000096821F00801F64A116011460968014390
:1038F00011607047F249096821F01001F04A116027
:1039000011460968014311607047EE48EC49486070
:10391000ED4848607047EA48006940F08000E84997
:10392000086170470420E649C96811F0010F01D011
:1039300001200EE0E249C96811F0040F01D0022015
:1039400007E0DF49C96811F0100F01D0032000E043
:103950000420704708B500200090FF20009002E08E
:103960000098401E009000980028F9D108BD70B55D
:1039700004460425FFF7D6FF054605E0FFF7EAFFFA
:10398000FFF7D0FF0546641E012D01D1002CF5D1B3
:1039900004B90525284670BD70B50546042440F6D7
:1039A000FF70FFF7E4FF0446042C19D1C4480069F6
:1039B00040F00200C249086108464561006940F0D4
:1039C0004000086140F6FF70FFF7D1FF0446012C6C
:1039D00006D0BB48006941F6FD710840B84908614E
:1039E000204670BD10B5042440F6FF70FFF7BFFFFE
:1039F0000446042C18D1B248006940F00400B049D4
:103A000008610846006940F04000086140F6FF7018
:103A1000FFF7ADFF0446012C06D0A948006941F626
:103A2000FB710840A6490861204610BD10B504246A
:103A300040F6FF70FFF79BFF0446042C3BD1A148E2
:103A40009F498860A04888600846006940F02000CF
:103A500008610846006940F04000086140F6FF70C8
:103A6000FFF785FF0446042C1CD19548006941F6F8
:103A7000DF710840924908610846006940F0100073
:103A80000861A520914908800F20FFF770FF0446C8
:103A9000012C10D08A48006941F6EF71084088492E
:103AA000086108E0012C06D08548006941F6EF71F5
:103AB000084083490861204610BD70B505460E4692
:103AC00004240F20FFF753FF0446042C25D17C4823
:103AD000006940F001007A4908612E800F20FFF74D
:103AE00046FF0446042C0FD1300C68800F20FFF7EE
:103AF0003EFF0446012C10D07148006941F6FE716A
:103B000008406F49086108E0012C06D06C48006944
:103B100041F6FE7108406A490861204670BD70B5E3
:103B200005460E4604240F20FFF721FF0446042C0F
:103B300013D16348006940F00100614908612E809B
:103B40000F20FFF714FF0446012C06D05C480069E3
:103B500041F6FE7108405A490861204670BD70B5B3
:103B600005460E4604240F20FFF701FF0446042CEF
:103B700017D1544852498860534888600846006904
:103B800040F0100008612E800F20FFF7F0FE044681
:103B9000012C06D04A48006941F6EF7108404849B7
:103BA0000861204670BD2DE9F04704464FF6FF76C8
:103BB0003746B046B1460425E443E6B2C4F30727CE
:103BC000C4F307484FEA14690F20FFF7D0FE0546FB
:103BD000042D40D13B483A4988603B4888600846FC
:103BE000006940F010000861FF2E06D03748083009
:103BF00006800F20FFF7BBFE0546042D08D1FF2FDE
:103C000006D032480A3007800F20FFF7B0FE054685
:103C1000042D0AD1B8F1FF0F07D02C480C30A0F8C2
:103C200000800F20FFF7A3FE0546042D0AD1B9F14D
:103C3000FF0F07D025480E30A0F800900F20FFF7A7
:103C400096FE0546012D06D01D48006941F6EF712C
:103C500008401B4908612846BDE8F08770B5054655
:103C6000042440F6FF70FFF782FE0446042C4AD17C
:103C7000144813498860144888600846006940F079
:103C8000200008610846006940F04000086140F6E5
:103C9000FF70FFF76CFE0446042C2BD10848006926
:103CA00041F6DF710840064908610846006940F0A6
:103CB0001000086165B10020044908800BE0000095
:103CC0000020024023016745AB89EFCD00F8FF1FBC
:103CD000A5204549088040F6FF70FFF748FE0446DE
:103CE000012C10D04148006941F6EF7108403F496E
:103CF000086108E0012C06D03C48006941F6DF71FC
:103D000008403A490861204670BD2DE9F041074658
:103D10000D46164604243648344988603548886084
:103D20000F20FFF724FE0446042C1AD12F48006907
:103D300040F010002D49086147EA0500304340F08B
:103D4000F8002949891C08800F20FFF710FE04465F
:103D5000012C06D02548006941F6EF71084023493F
:103D600008612046BDE8F0812048C069800870479E
:103D70001E48006A704700201C49C96911F0020FF3
:103D800001D0012000E00020704700201749096899
:103D900011F0200F01D0012000E00020704729B170
:103DA000124A12690243114B1A6104E00F4A126968
:103DB00082430E4B1A61704701460020012908D149
:103DC0000A4AD26912F0010F01D0012008E0002058
:103DD00006E0064AD2680A4201D0012000E0002035
:103DE00070470249C860704700F8FF1F002002407A
:103DF00023016745AB89EFCD0CB500200190009001
:103E00004748006840F480304549086000BF444896
:103E1000006800F4003000900198401C0190009868
:103E200018B90198B0F5A06FF1D13D48006810F4C1
:103E3000003F02D00120009001E000200090009897
:103E4000012843D13748006840F010003549086028
:103E50000846006820F0030008600846006840F04B
:103E6000020008602E4840682D49486008464068B6
:103E700048600846406840F48060486008464068F2
:103E800020F47C1048600846406840F4E810486020
:103E90000846006840F08070086000BF2048006855
:103EA00010F0007FFAD01E48406820F003001C4943
:103EB00048600846406840F00200486000BF18486B
:103EC000406800F00C000828F9D101E000BFFEE7CF
:103ED0000CBD10B5FFF790FF10BD10B5104800687D
:103EE00040F001000E490860084640680E4908404D
:103EF0000B494860084600680C49084008490860BA
:103F00000846006820F4802008600846406820F4D5
:103F1000FE00486000208860FFF7DBFF10BD000056
:103F200000100240002002400000FFF8FFFFF6FEF4
:103F3000FFF7D3FF1F48FCF713FBFDF781FAFDF7EE
:103F4000A3FA01210846FEF7DEFA01218807FEF7F1
:103F500094FEFCF77FF9FDF70DFBFDF73EFBFCF748
:103F60002BFFFCF751FFFDF727FDFDF736FB002087
:103F70001149086001E0FDF792F80F480068322807
:103F8000F9D3FDF788FFFDF7E1FD12E0FCF7ACFA8D
:103F90000A48006805280AD3FDF718FDFDF70EFE54
:103FA00007490879FDF7E7F9002004490860FDF7A3
:103FB0001BFCEBE700A24A04EC010020E801002012
:103FC00000000020704700BFFEE700BFFEE700BF13
:103FD000FEE700BFFEE7704770477047704710B5B7
:103FE00001218807FFF727F9B8B101218807FFF7FA
:103FF00033F90A480068401C08490860084800680E
:10400000401C0749086007480068401C05490860D3
:1040100005480068401C0449086010BDE401002008
:10402000E8010020EC010020F0010020032A40F20A
:10403000308010F0030C00F0158011F8013BBCF14A
:10404000020F624498BF11F801CB00F8013B38BF62
:1040500011F8013BA2F1040298BF00F801CB38BF70
:1040600000F8013B11F0030300F02880083AC0F08B
:10407000088051F8043B083A51F804CBA0E8081036
:10408000F5E7121D5CBF51F8043B40F8043BAFF369
:104090000080D20724BF11F8013B11F801CB48BFC3
:1040A00011F8012B24BF00F8013B00F801CB48BFF9
:1040B00000F8012B704770477047704710B5203AE1
:1040C000C0F00B80B1E81850203AA0E81850B1E8D1
:1040D0001850A0E81850BFF4F5AF5FEA027C24BF87
:1040E000B1E81850A0E8185044BF18C918C0BDE87E
:1040F00010405FEA827C24BF51F8043B40F8043B47
:1041000008BF7047D20728BF31F8023B48BF11F8FB
:10411000012B28BF20F8023B48BF00F8012B704755
:10412000754600F029F8AE4605006946534620F072
:104130000700854618B020B5FCF77AF8BDE82040A6
:104140004FF000064FF000074FF000084FF0000B53
:1041500021F00701AC46ACE8C009ACE8C009ACE806
:10416000C009ACE8C0098D4670470446AFF3008033
:104170002046FCF744F8000000487047F410002087
:1041800001491820ABBEFEE7260002007047C7EBCE
:10419000B5C8B4FD200909200020202020202020BF
:1041A000202020202020202020002020202033300C
:1041B000C3EBBAF32020202020200020202020CE96
:1041C000AAC4FAB7FECEF120202020002020202013
:1041D000B1BEBBFACFD6CEAA3A20202000D1C5BFAF
:1041E000E1BCD1D6C6C0E4C9E8B1B8202000D1A155
:1041F000D4F13A2020202020C4A3CABD202000B042
:10420000B42020BCFCC9E8D6C3C4A3CABD2020008A
:104210002020D7D4B6AFB2D9D7F7C4A3CABD2020C7
:10422000002020CAD6B6AFB2D9D7F7C4A3CABD20E2
:1042300020002020CDE2BFD8B2D9D7F7C4A3CABD91
:104240002020002020B9A4D7F7C4A3CABDC9E8D64E
:10425000C32020002020B5C8B4FDCDE2BFD8D0C512
:10426000BAC5202000B0B42020BCFCC9E8D6C3CE1B
:10427000C2B6C82020002020B5C8B4FDB0B4BCFC34
:10428000B2D9D7F7202000D7D4B6AFC6F4B6AFC0A6
:10429000E4CBAEBBFA202000B5CDCEC2CBAEC1F789
:1042A000C1BFD2ECB3A300B8DFCEC2CBAEC1F7C161
:1042B000BFD2ECB3A300BBB7BEB3CEC2B6C8D2EC7C
:1042C000B3A300B5E7D4B4CFE0D0F2D2ECB3A300EF
:1042D000D7D4B6AF00CAD6B6AF00B5CDCEC2CBAE3E
:1042E0002020CEC2B6C8C9E8D6C300B8DFCEC2CB44
:1042F000AE2020CEC2B6C8C9E8D6C300CFC2CFDE3A
:10430000B1A8BEAFCEC2B6C8C9E8D6C300C9CFCF28
:10431000DEB1A8BEAFCEC2B6C8C9E8D6C300D2BA15
:10432000CEBBB9FDB5CD00CAD6B6AFC4A3CABDD504
:10433000FDB3A3D4CBD0D000CDE2BFD800B5CDCE55
:10434000C2CBAEB1C3B9FDD4D800B8DFCEC2CBAEBC
:10435000B1C3B9FDD4D800D1B9CBF5BBFAB9FDD4FE
:10436000D800CBAECEC2B5CDD3DACFC2CFDE00CB34
:10437000AECEC2B8DFD3DAC9CFCFDE00D4A4C9E84D
:10438000CEC2B6C8A3BA20202020A1E600BBB7BE8B
:10439000B3CFB5CAFD202020202030A1E600B5CD46
:1043A000CEC2CBAECFB5CAFD20202030A1E600B8EA
:1043B000DFCEC2CBAECFB5CAFD20202030A1E600B3
:1043C000BBB7BEB3CEC2B6C8A3BA0932A1E600B528
:1043D000CDCEC2CBAE3A20092032A1E600B5CDCE7B
:1043E000C2CBAE3A20202020203232A1E600BBB75B
:1043F000BEB3CEC2B6C83A2020203234A1E600B8FF
:10440000DFCEC2CBAE3A20202020203238A1E600F9
:10441000CEC2B6C8B2CECAFDD0A3D7BCBDE7C3E6F4
:1044200000D5FDD4DABDF8D0D0B7C0B6B3B4A6C0BD
:10443000ED0000005444000800000020F4010000DA
:104440006C01000838450008F401002064110000E8
:10445000C801000851120113141412DC141801646D
:1044600063C201220A022C20193011139941140849
:10447000D5421B08D0041338431B08C3081A570839
:104480001A1E041AA70C1A98041A4A0C1A3D041A88
:10449000B60C1A6F081A620429381ADD041ABB0414
:1044A000290C411321441B088E0C1ACF201AC0047A
:1044B000411ACC101A21381A7604692829141A10C6
:1044C000101AAA081A870869141A320C9A54281A62
:1044D000EE441ADD041AFF041A270413950E1B0874
:1044E00043201AEE205AFF7813430F1B08DA141AE0
:1044F0007C205A653C1A6F140A11EB140A11FC1443
:104500001A0D10E91429081A10CC5A9EE8416914B2
:104510000A11AF149A8D14C10A11011012DC14187B
:104520000164EAC21B112D0102030404F808060706
:0845300008090204064C00001A
:040000050800020FDE
:00000001FF
